:020000040000FA
:0400000066EF00F0B7
:020004000000FA
:08000800F2A41100172AF29482
:020010001100DD
:0E0012007F9C7F8EB9EC00F0120004EE00F02F
:100020000E0E026E000EF86E040EF76E380EF66EAF
:1000300002C000F059EC00F0120004EE00F0110EC6
:10004000026E000EF86E040EF76E460EF66E02C0DB
:1000500000F059EC00F0120004EE00F00B0E026EFE
:10006000000EF86E040EF76E580EF66E02C000F029
:1000700059EC00F0120004EE00F00E0E026E000EBD
:10008000F86E040EF76E640EF66E02C000F059ECC6
:1000900000F0120004EE00F0110E026E000EF86E79
:1000A000040EF76E720EF66E02C000F059EC00F00E
:1000B00012000900F5CFEEFF002EFBD702C0E8FFCB
:1000C000E80624EE00F0EBEC00F0120009EC00F082
:1000D00099EC01F039EC01F042EC02F00EEC00F08A
:1000E000C8EC01F041EC01F0F2EC01F0E4EC00F0BE
:1000F000CFEC01F0F29EFBEC01F0116A4BEC02F048
:10010000106EA4EC01F05BEC02F0186A4BEC01F00D
:100110002CEC00F0C8EC01F0E4EC00F00EEC00F088
:10012000C8EC01F041EC01F00F0E08640868E4EC43
:1001300000F0192A11EE40F0176ACFEC01F07BEFC6
:1001400000F03BEC00F0CFEC01F0E4EC00F0B1EF9C
:1001500000F01DEC00F0CFEC01F0E4EC00F0B1EFAA
:1001600000F04AEC00F0C8EC01F041EC01F066EF61
:0201700000F09D
:0E0172008A6AC00E936E280E23EC01F0300E48
:10018000F2EC00F00A0E2AEC01F0280EF2EC00F07E
:100190000A0E2AEC01F0280EF2EC00F00A0E2AEC0E
:1001A00001F00C0EF2EC00F00A0E2AEC01F0010E48
:1001B000F2EC00F0020E23EC01F0060EF2EC00F07F
:1001C0000A0E2AEC01F01200010EF2EC00F0020E11
:1001D00023EC01F01200076EDE5000EC01F0072E58
:1001E000FBD71200066E06380F0B8A6E8A9811EC48
:1001F00001F006500F0B8A6E8A9811EC01F0120084
:10020000066E06380F0B8A6E8A8811EC01F00650D4
:100210000F0B8A6E8A8811EC01F00A0E2AEC01F0AD
:1002200012000000000000000000000000000000BC
:1002300000008A8A000000000000000000000000AA
:1002400000008A9A1200056EFA0E2AEC01F0052EC3
:10025000FBD71200036E033A0F0E0314046EF00E68
:10026000031634EC01F01200000E0306045AFDE2FE
:0202700012007A
:0E0272000F01538D0F0E966E846A176A08688E
:10028000120084A0120084A2120084A4120084A68A
:100290001200082AF6D784A05CEC01F084A26AEC74
:1002A00001F084A478EC01F084A686EC01F0150E30
:1002B0001764F1D7A1EF00F0010E836E000E94ECED
:1002C00001F0D6EC01F0836A18C0E8FF196488EFEA
:1002D00000F01200020E836E010E94EC01F0D6ECD9
:1002E00001F0836A18C0E8FF196488EF00F012007B
:1002F000040E836E020E94EC01F0D6EC01F0836ADA
:1003000018C0E8FF196488EF00F01200080E836E31
:10031000030E94EC01F0D6EC01F0836A18C0E8FFFC
:10032000196488EF00F01200E662A9EF00F0182AC5
:020330001200B9
:0E033200956A836A010E136E020E146E040E9D
:10034000156E080E166E1200B6EC01F012C083FF97
:10035000E650DDEC01F0112A836ADDEC01F019C0F2
:10036000E8FF1162F1D711EE40F0120013C012F055
:10037000000EE764120014C012F0010EE7641200D0
:1003800015C012F0020EE764120016C012F012003F
:10039000200E0D6E0E6E0F6EE5EC01F01200F00EE9
:1003A0000D6E0E6E0F6EE5EC01F01200100E0D6E6C
:1003B0000E6E0F6EE5EC01F0120010C0E8FF0D6E3E
:1003C0000E6E0F6EE5EC01F01200EAEC01F00D2E5E
:1003D000FCD71200EFEC01F00E2EFCD712000F2E0E
:0403E000FED7120032
:0C03E4000B6A11EE40F0040E196E0F0EB3
:1003F00008640868120008EC02F00AC0E6FF0B2A45
:1004000019C0E8FF0B62F7D711EE40F00B6A12003B
:1004100010EC02F00A6E10EC02F00A260A26120016
:10042000010E096E08A8096A08AAE86A0918D89096
:08043000E866D88008321200D2
:08043800507265737320616EC0
:1004400079206B65790A57524F4E47212047414D1D
:1004500045204F5645520A004E657874206C6576EB
:10046000656C0A00546F6F6B20746F6F206C6F6E39
:10047000670A507265737320746F207265737461BC
:0404800072740A0088
:0C04840092802581010EC26E300EC16E08
:10049000760EC06E1200C282C2B2FED7330EC464A2
:1004A000100C660EC464250C990EC4643A0CCC0E74
:0604B000C3644F0C640C54
:0A04B600870ED56EF28AF28E120056
:020000040030CA
:0100000015EA
:0100010013EB
:010002007F7E
:010003007F7D
:01000400F902
:010005008B6F
:010006009168
:01000800FFF8
:01000900C036
:01000A00FFF6
:01000B00E014
:01000C00FFF4
:01000D0040B2
:00000001FF
