:020000040000FA
:0400000066EF00F0B7
:020004000000FA
:08000800F2A41100292AF29470
:020010001100DD
:0E0012007F9C7F8EB0EC00F0120004EE00F038
:100020000E0E126E000EF86E040EF76E260EF66EB1
:1000300012C000F059EC00F0120004EE00F0100EB7
:10004000126E000EF86E040EF76E340EF66E12C0CD
:1000500000F059EC00F0120004EE00F00B0E126EEE
:10006000000EF86E040EF76E440EF66E12C000F02D
:1000700059EC00F0120004EE00F00C0E126E000EAF
:10008000F86E040EF76E500EF66E12C000F059ECCA
:1000900000F0120004EE00F0110E126E000EF86E69
:1000A000040EF76E5C0EF66E12C000F059EC00F014
:1000B00012000900F5CFEEFF002EFBD712C0E8FFBB
:1000C000E80624EE00F0E2EC00F0120009EC00F08B
:1000D00090EC01F030EC01F00EEC00F0C7EC01F018
:1000E00038EC01F0E9EC01F0DBEC00F0C7EC01F0DA
:1000F000F29EF2EC01F0206A9BEC01F037EC02F08A
:100100002A6A42EC01F02CEC00F0C7EC01F0DBECC9
:1001100000F00EEC00F0C7EC01F038EC01F00F0E2F
:1001200018641868DBEC00F02B2A11EE40F0296A05
:10013000CEEC01F0DBEC00F079EF00F03BEC00F0EE
:10014000A0EF00F01DEC00F0C7EC01F0DBEC00F0DC
:100150004AEC00F0C7EC01F038EC01F066EF00F07B
:100160008A6AC00E936E280E1AEC01F0300EE9EC8C
:1001700000F00A0E21EC01F0280EE9EC00F00A0E66
:1001800021EC01F0280EE9EC00F00A0E21EC01F060
:100190000C0EE9EC00F00A0E21EC01F0010EE9EC86
:1001A00000F0020E1AEC01F0060EE9EC00F00A0E67
:1001B00021EC01F01200010EE9EC00F0020E1AEC45
:1001C00001F01200176EDE50F7EC00F0172EFBD78F
:1001D0001200166E16380F0B8A6E8A9808EC01F022
:1001E00016500F0B8A6E8A9808EC01F01200166EFA
:1001F00016380F0B8A6E8A8808EC01F016500F0B28
:100200008A6E8A8808EC01F00A0E21EC01F01200D7
:1002100000000000000000000000000000000000DE
:100220008A8A0000000000000000000000000000BA
:100230008A9A1200156EFA0E21EC01F0152EFBD7EA
:100240001200136E133A0F0E1314146EF00E1316E1
:100250002BEC01F01200000E1306145AFDE21200FE
:100260000F01538D0F0E966E846A296A186812006A
:1002700084A0000C84A2010C84A4020C84A6030CAC
:10028000182AF6D784A053EC01F084A261EC01F0A7
:1002900084A46FEC01F084A67DEC01F0590E296472
:1002A000F1D79EEF00F0010E836E000E8BEC01F093
:1002B000D5EC01F0836A2AC0E8FF2B6483EF00F0DD
:1002C0001200020E836E010E8BEC01F0D5EC01F0F2
:1002D000836A2AC0E8FF2B6483EF00F01200040E4B
:1002E000836E020E8BEC01F0D5EC01F0836A2AC01C
:1002F000E8FF2B6483EF00F01200080E836E030EFC
:100300008BEC01F0D5EC01F0836A2AC0E8FF2B6486
:1003100083EF00F01200E662A2EF00F02A2A12003A
:10032000956A836A010E226E020E236E040E246EFD
:10033000080E256E1200AEEC01F021C083FFE650DE
:10034000C7EC01F0202A836AC7EC01F02BC0E8FF5C
:100350002062F1D7836A11EE40F0120022C021F032
:10036000000EE764120023C021F0010EE7641200C2
:1003700024C021F0020EE764120025C021F0120013
:10038000000E956E0F0E836EE6CF00F01200400E49
:100390001D6E1E6E1F6EDCEC01F01200F00E1D6E65
:1003A0001E6E1F6EDCEC01F01200100E1D6E1E6E34
:1003B0001F6EDCEC01F01200E1EC01F01D2EFCD709
:1003C0001200E6EC01F01E2EFCD712001F2EFED705
:0203D000120019
:0E03D2001B6A11EE40F0040E2B6E0F0E186425
:1003E00018681200FFEC01F01AC0E6FF1B2A2BC0B0
:1003F000E8FF1B62F7D711EE40F01B6A120007EC12
:1004000002F01A6E07EC02F01A261A261200010EEC
:10041000196E18A8196A18AAE86A1918D890E86617
:06042000D8801832120022
:0A042600507265737320616E792037
:100430006B65790A6C6F6C207468617473207772D5
:100440006F6E670A4E657874206C6576656C0A007D
:10045000746F6F206C617465206D380A507265731B
:0E0460007320746F20726573746172740A00E9
:02046E00870EF7
:08047000D56EF28AF28E120033
:020000040030CA
:0100000015EA
:0100010013EB
:010002007F7E
:010003007F7D
:01000400F902
:010005008B6F
:010006009168
:01000800FFF8
:01000900C036
:01000A00FFF6
:01000B00E014
:01000C00FFF4
:01000D0040B2
:00000001FF
