:020000040000FA
:0400000066EF00F0B7
:020004000000FA
:08000800F2A411002A2AF2946F
:020010001100DD
:0E0012007F9C7F8EBFEC00F0120004EE00F029
:100020000E0E126E000EF86E040EF76E540EF66E83
:1000300012C000F059EC00F0120004EE00F0110EB6
:10004000126E000EF86E040EF76E620EF66E12C09F
:1000500000F059EC00F0120004EE00F00B0E126EEE
:10006000000EF86E040EF76E740EF66E12C000F0FD
:1000700059EC00F0120004EE00F00E0E126E000EAD
:10008000F86E040EF76E800EF66E12C000F059EC9A
:1000900000F0120004EE00F0110E126E000EF86E69
:1000A000040EF76E8E0EF66E12C000F059EC00F0E2
:1000B00012000900F5CFEEFF002EFBD712C0E8FFBB
:1000C000E80624EE00F0F1EC00F0120009EC00F07C
:1000D0003FEC01F0A0EC01F050EC02F00EEC00F06F
:1000E00076EC01F0A8EC01F000EC02F0EAEC00F094
:1000F0007DEC01F0F29E09EC02F0216A59EC02F06D
:10010000206E4AEC01F069EC02F02B6AB2EC01F0CF
:100110002CEC00F076EC01F0EAEC00F00EEC00F0D4
:1001200076EC01F0A8EC01F00F0E18641868EAEC08
:1001300000F02C2A11EE40F02A6A7DEC01F0EAEC86
:1001400000F07BEF00F03BEC00F07DEC01F0EAEC1E
:1001500000F04AEC00F076EC01F0A8EC01F066EF5C
:1001600000F01DEC00F07DEC01F0EAEC00F04AEC50
:0E01700000F076EC01F0A8EC01F066EF00F074
:02017E008A6A8B
:10018000C00E936E280E29EC01F0300EF8EC00F052
:100190000A0E30EC01F0280EF8EC00F00A0E30ECFC
:1001A00001F0280EF8EC00F00A0E30EC01F00C0E15
:1001B000F8EC00F00A0E30EC01F0010EF8EC00F063
:1001C000020E29EC01F0060EF8EC00F00A0E30ECFD
:1001D00001F01200010EF8EC00F0020E29EC01F023
:1001E0001200176EDE5006EC01F0172EFBD712003E
:1001F000166E16380F0B8A6E8A9817EC01F016509F
:100200000F0B8A6E8A9817EC01F01200166E1638E2
:100210000F0B8A6E8A8817EC01F016500F0B8A6E4E
:100220008A8817EC01F00A0E30EC01F01200000091
:1002300000000000000000000000000000008A8AAA
:1002400000000000000000000000000000008A9A8A
:100250001200156EFA0E30EC01F0152EFBD71200CD
:10026000136E133A0F0E1314146EF00E13163AECAD
:0E02700001F01200000E1306145AFDE21200F7
:02027E00956A7F
:10028000836A010E236E020E246E040E256E080E84
:10029000266E12005DEC01F022C083FFE6508BEC6D
:1002A00001F0212A836A8BEC01F02CC0E8FF216267
:1002B000F1D7836A11EE40F0120023C022F0000E45
:1002C000E764120024C022F0010EE764120025C08A
:1002D00022F0020EE764120026C022F01200000E87
:1002E000956E0F0E836EE6CF00F01200200E1D6E8D
:1002F0001E6E1F6E93EC01F01200F00E1D6E1E6E4E
:100300001F6E93EC01F01200100E1D6E1E6E1F6E1C
:1003100093EC01F0120020C0E8FF1D6E1E6E1F6EF0
:1003200093EC01F0120098EC01F01D2EFCD71200A6
:100330009DEC01F01E2EFCD712001F2EFED71200DE
:100340000F01538D0F0E966E846A2A6A1868120088
:1003500084A0000C84A2010C84A4020C84A6030CCB
:10036000182AF6D784A0C3EC01F084A2D1EC01F0E6
:1003700084A4DFEC01F084A6EDEC01F0150E2A64F4
:10038000F1D7A3EF00F0010E836E000EFBEC01F03D
:1003900084EC01F0836A2BC0E8FF2C6488EF00F046
:1003A0001200020E836E010EFBEC01F084EC01F0F2
:1003B000836A2BC0E8FF2C6488EF00F01200040E63
:1003C000836E020EFBEC01F084EC01F0836A2BC01B
:1003D000E8FF2C6488EF00F01200080E836E030E15
:1003E000FBEC01F084EC01F0836A2BC0E8FF2C6485
:1003F00088EF00F01200E662B1EF00F02B2A120045
:100400001B6A11EE40F0040E2C6E0F0E1864186873
:10041000120016EC02F01AC0E6FF1B2A2CC0E8FFFF
:100420001B62F7D711EE40F01B6A12001EEC02F0BF
:100430001A6E1EEC02F01A261A261200010E196E10
:1004400018A8196A18AAE86A1918D890E866D88016
:04045000183212004C
:0C045400507265737320616E79206B6537
:10046000790A57524F4E47212047414D45204F565C
:1004700045520A004E657874206C6576656C0A00FA
:10048000546F6F6B20746F6F206C6F6E670A5072C1
:1004900065737320746F20726573746172740A00DF
:1004A00092802581010EC26E300EC16EF60EC06EB6
:1004B0001200C282C2B2FED7330EC364100C660EA5
:1004C000C3641C0C990EC3642E0CCC0EC364400C88
:0204D000520CCC
:0A04D200870ED56EF28AF28E12003A
:020000040030CA
:0100000015EA
:0100010013EB
:010002007F7E
:010003007F7D
:01000400F902
:010005008B6F
:010006009168
:01000800FFF8
:01000900C036
:01000A00FFF6
:01000B00E014
:01000C00FFF4
:01000D0040B2
:00000001FF
