:020000040000FA
:040000000BEF01F011
:020004000000FA
:08000800F2B213EC00F0F0B0BD
:1000100018EC00F0F0B21DEC00F0F0B422EC00F0AF
:1000200027EC00F01100010E836EF292000E120018
:10003000020E836EF090010E1200040E836EF09299
:10004000020E1200080E836EF094030E1200EE6290
:100050002DEF00F02FEC00F012002DEF00F02FEF4D
:0200600000F0AE
:0E0062008A6AC00E936E280E94EC00F0300EE9
:1000700063EC00F00A0E9BEC00F0280E63EC00F03D
:100080000A0E9BEC00F0280E63EC00F00A0E9BECCD
:1000900000F00F0E63EC00F00A0E9BEC00F0010E76
:1000A00063EC00F0020E94EC00F0060E63EC00F03E
:1000B0000A0E9BEC00F01200066EDE5071EC00F0B0
:1000C000062EFBD71200056E05380F0B8A6E8A9834
:1000D00082EC00F005500F0B8A6E8A9882EC00F0DB
:1000E0001200056E05380F0B8A6E8A8882EC00F0CC
:1000F00005500F0B8A6E8A8882EC00F00A0E9BEC8A
:1001000000F01200000000000000000000000000ED
:10011000000000008A8A00000000000000000000CB
:10012000000000008A9A1200046EFA0E9BEC00F0A8
:10013000042EFBD71200026E023A0F0E0214036E59
:10014000F00E0216A5EC00F01200000E0206035A93
:04015000FDE21200BA
:0C015400956A010E126E020E136E040E6E
:10016000146E080E156E1200106AC2EC00F011C079
:1001700083FFEE50DFEC00F0836A102A040E106259
:10018000F3D7120012C011F0000EEF64120013C07A
:1001900011F0010EEF64120014C011F0020EEF64B2
:1001A000120015C011F01200000E956E0F0E836E36
:1001B000EECF00F0200E0D6E0E6E0F6E1200E4EC0E
:1001C00000F00D2EFCD71200E9EC00F00E2EFCD74B
:0801D00012000F2EFED71200F1
:0801D8007F9C7F8E31EC00F0EA
:1001E000120004EE00F0000EF86E020EF76EA60E7E
:1001F000F66E19C000F00900F5CFEEFF002EFBD718
:1002000019C0E8FFE80624EE00F05CEC00F01200F4
:10021000012EFED71200ECEC00F01CEC01F0AAEC71
:1002200000F00E0E196EF1EC00F028EC01F0106AEF
:08023000B4EC00F049EC01F010
:08023800010E076E086E096E4D
:100240000A6E0C6A25EC01F0120001EE40F012007B
:1002500033EC01F00BC0EEFF0C2A040E0C62F8D751
:1002600025EC01F012003EEC01F007C00BF03EEC73
:1002700001F007C000F00B260B2612000AC0E8FFB1
:10028000091809C00AF008C009F007C008F0076E95
:0202900012005A
:0E0292000F0E936EF00E816EF288F086F088EB
:0602A000F08AF28E12004C
:0A02A600507265737320616E7920B9
:0402B0006B65790AF7
:00000001FF
