:020000040000FA
:04000000CBEF00F052
:020004000000FA
:08000800F2A411002A2AF2946F
:020010001100DD
:0E0012008A6AC00E936E280E73EC00F0300E5A
:1000200042EC00F00A0E7AEC00F0280E42EC00F0F0
:100030000A0E7AEC00F0280E42EC00F00A0E7AEC80
:1000400000F00F0E42EC00F00A0E7AEC00F0010E08
:1000500042EC00F0020E73EC00F0060E42EC00F0F1
:100060000A0E7AEC00F01200010E42EC00F0020ED3
:1000700073EC00F01200176EDE5050EC00F0172EFB
:10008000FBD71200166E16380F0B8A6E8A9861EC39
:1000900000F016500F0B8A6E8A9861EC00F0120087
:1000A000166E16380F0B8A6E8A8861EC00F01650B7
:1000B0000F0B8A6E8A8861EC00F00A0E7AEC00F071
:1000C000120000000000000000000000000000001E
:1000D00000008A8A0000000000000000000000000C
:1000E00000008A9A1200156EFA0E7AEC00F0152EB6
:1000F000FBD71200136E133A0F0E1314146EF00E8A
:10010000131684EC00F01200000E1306145AFDE2E0
:020110001200DB
:0E0112007F9C7F8E09EC00F0120004EE00F0DE
:100120000E0E126E000EF86E030EF76E8A0EF66E4D
:1001300012C000F0BBEC00F0120004EE00F0100E54
:10014000126E000EF86E030EF76E980EF66E12C069
:1001500000F0BBEC00F0120004EE00F00B0E126E8B
:10016000000EF86E030EF76EA80EF66E12C000F0C9
:10017000BBEC00F012000900F5CFEEFF002EFBD71C
:1001800012C0E8FFE80624EE00F03BEC00F012009D
:10019000012EFED7120089EC00F0FBEC00F04BECD6
:1001A00001F08EEC00F02FEC01F03EEC01F051EC90
:1001B00001F099EC01F034EC00F03EEC01F0040E9B
:1001C0002C6E2A6AA2EC01F0216A05EC01F0DAEC4F
:1001D00001F02B6A2D6A5EEC01F0ACEC00F02C2AE9
:1001E00011EE40F02A6A34EC01F03EEC01F0E2EF4F
:0601F00000F0F9EF00F041
:0A01F600956A010E236E020E246EBE
:10020000040E256E080E266E120017EC01F022C0B7
:1002100083FFE6502FEC01F03EEC01F0212A2CC0C8
:10022000E8FF2162F2D7836A11EE40F0120023C08A
:1002300022F0000EE764120024C022F0010EE764F1
:10024000120025C022F0020EE764120026C022F040
:100250001200000E956E0F0E836EE6CF00F0400E7A
:100260001E6E1F6E206E1200F00E1E6E1F6E206E30
:100270001200150E1E6E1F6E206E120043EC01F070
:100280001E2EFCD7120048EC01F01F2EFCD71200E6
:06029000202EFED7120033
:0A0296000F01538D0F0E966E846A5F
:1002A0001200000E84A01200010E84A21200020EA1
:1002B00084A41200030E84A61200F3D784A07CEC61
:1002C00001F084A281EC01F084A486EC01F084A604
:1002D0008BEC01F02D6690EC01F02D6A39EC01F009
:1002E0003EEC01F02BC0E8FF2C64EDEF00F0590E5E
:1002F0002A64F9EF00F0E2D7010E836E2D68000E3C
:100300001200020E836E2D68010E1200040E836E21
:100310002D68020E1200080E836E2D68030E120067
:10032000E66295EF01F02B2A12009DEC00F097EFAA
:0203300001F0DA
:0E033200010E186E196E1A6E1B6E1D6A11EE0A
:1003400040F01200AFEC01F01CC0E6FF1D2A2CC0EB
:10035000E8FF1D62F7D711EE40F01D6A1200BAECFB
:1003600001F018C01CF0BAEC01F018C000F01C2617
:100370001C2612001BC0E8FF1A181AC01BF019C077
:0A0380001AF018C019F0186E1200F0
:06038A0050726573732040
:10039000616E79206B65790A6C6F6C20746861748A
:1003A000732077726F6E670A4E657874206C65767D
:0403B000656C0A006E
:0A03B400870ED56EF28AF28E120059
:020000040030CA
:0100000015EA
:0100010013EB
:010002007F7E
:010003007F7D
:01000400F902
:010005008B6F
:010006009168
:01000800FFF8
:01000900C036
:01000A00FFF6
:01000B00E014
:01000C00FFF4
:01000D0040B2
:00000001FF
