:020000040000FA
:04000000D7EF00F046
:020004000000FA
:08000800F2A411002A2AF2946F
:020010001100DD
:0E0012008A6AC00E936E280E73EC00F0300E5A
:1000200042EC00F00A0E7AEC00F0280E42EC00F0F0
:100030000A0E7AEC00F0280E42EC00F00A0E7AEC80
:1000400000F00C0E42EC00F00A0E7AEC00F0010E0B
:1000500042EC00F0020E73EC00F0060E42EC00F0F1
:100060000A0E7AEC00F01200010E42EC00F0020ED3
:1000700073EC00F01200176EDE5050EC00F0172EFB
:10008000FBD71200166E16380F0B8A6E8A9861EC39
:1000900000F016500F0B8A6E8A9861EC00F0120087
:1000A000166E16380F0B8A6E8A8861EC00F01650B7
:1000B0000F0B8A6E8A8861EC00F00A0E7AEC00F071
:1000C000120000000000000000000000000000001E
:1000D00000008A8A0000000000000000000000000C
:1000E00000008A9A1200156EFA0E7AEC00F0152EB6
:1000F000FBD71200136E133A0F0E1314146EF00E8A
:10010000131684EC00F01200000E1306145AFDE2E0
:020110001200DB
:0E0112007F9C7F8E09EC00F0120004EE00F0DE
:100120000E0E126E000EF86E030EF76EA80EF66E2F
:1001300012C000F0CAEC00F0120004EE00F0100E45
:10014000126E000EF86E030EF76EB60EF66E12C04B
:1001500000F0CAEC00F0120004EE00F00B0E126E7C
:10016000000EF86E030EF76EC60EF66E12C000F0AB
:10017000CAEC00F0120004EE00F00C0E126E000E3D
:10018000F86E030EF76ED20EF66E12C000F0CAECD7
:1001900000F012000900F5CFEEFF002EFBD712C0D1
:1001A000E8FFE80624EE00F03BEC00F0120089ECDA
:1001B00000F005EC01F05CEC01F08EEC00F03AECA4
:1001C00001F063EC01F0A6EC01F034EC00F03AEC45
:1001D00001F0F29EB1EC01F0216A0FEC01F0EFECBE
:1001E00001F02B6A2D6A6CEC01F0ACEC00F02C2ACB
:1001F00011EE40F02A6A41EC01F034EC00F0EAEF35
:0A02000000F0BBEC00F003EF01F08A
:06020A00956A010E236E4F
:10021000020E246E040E256E080E266E120022ECCD
:1002200001F022C083FFE6503AEC01F0212A836AF4
:100230003AEC01F02CC0E8FF2162F1D7836A11EE9D
:1002400040F0120023C022F0000EE764120024C028
:1002500022F0010EE764120025C022F0020EE764CE
:10026000120026C022F01200000E956E0F0E836E53
:10027000E6CF00F0400E1E6E1F6E206E4FEC01F0B8
:100280001200F00E1E6E1F6E206E4FEC01F0120079
:10029000100E1E6E1F6E206E4FEC01F0120054EC1B
:1002A00001F01E2EFCD7120059EC01F01F2EFCD7D6
:0802B0001200202EFED71200FF
:0802B8000F01538D0F0E966E2D
:1002C000846A2A6A120084A0000C84A2010C84A40F
:1002D000020C84A6030CF7D784A089EC01F084A259
:1002E0008EEC01F084A493EC01F084A698EC01F06C
:1002F0002D669DEC01F02D6A48EC01F0836A2BC05D
:10030000E8FF2C64F5EF00F0590E2A64E5D701EF01
:1003100001F0010E836E2D68000E1200020E836E36
:100320002D68010E1200040E836E2D68020E12005D
:10033000080E836E2D68030E1200E662A2EF01F034
:0C0340002B2A12009DEC00F0A4EF01F04D
:04034C00010E186E18
:10035000196E1A6E1B6E1D6A11EE40F0040E2C6EA3
:100360001200BEEC01F01CC0E6FF1D2A2CC0E8FF05
:100370001D62F7D711EE40F01D6A1200C9EC01F0C2
:1003800018C01CF0C9EC01F018C000F01C261C2697
:1003900012001BC0E8FF1A181AC01BF019C01AF08F
:0803A00018C019F0186E1200DC
:0803A800507265737320616E51
:1003B00079206B65790A6C6F6C20746861747320A6
:1003C00077726F6E670A4E657874206C6576656C1F
:0E03D0000A00746F6F206C617465206D380A2E
:0203DE00870E88
:0803E000D56EF28AF28E1200C4
:020000040030CA
:0100000015EA
:0100010013EB
:010002007F7E
:010003007F7D
:01000400F902
:010005008B6F
:010006009168
:01000800FFF8
:01000900C036
:01000A00FFF6
:01000B00E014
:01000C00FFF4
:01000D0040B2
:00000001FF
