:020000040000FA
:0400000033EF01F0E9
:020004000000FA
:0A0006008A6AC00E936E280E66ECA5
:1000100000F0300E35EC00F00A0E6DEC00F0280E0A
:1000200035EC00F00A0E6DEC00F0280E35EC00F017
:100030000A0E6DEC00F00F0E35EC00F00A0E6DECC0
:1000400000F0010E35EC00F0020E66EC00F0060E3A
:1000500035EC00F00A0E6DEC00F012000B6EDE5075
:1000600043EC00F00B2EFBD712000A6E0A380F0B80
:100070008A6E8A9854EC00F00A500F0B8A6E8A98A8
:1000800054EC00F012000A6E0A380F0B8A6E8A8850
:1000900054EC00F00A500F0B8A6E8A8854EC00F082
:1000A0000A0E6DEC00F012000000000000000000DD
:1000B00000000000000000008A8A0000000000002C
:1000C00000000000000000008A9A1200096EFA0E7B
:1000D0006DEC00F0092EFBD71200076E073A0F0EE9
:1000E0000714086EF00E071677EC00F01200000EF1
:0800F0000706085AFDE21200A8
:100100000FC0E8FF0E180EC00FF00DC00EF00CC0AF
:100110000DF00C6E120001EE40F01200010E0C6E9C
:100120000D6E0E6E0F6E116A8BEC00F0A2EC00F0FB
:1001300004C0EEFF112A040E1162F8D78BEC00F018
:10014000ADEF00F080EC00F00CC004F080EC00F0AB
:0E0150000CC000F0042604261200ADEF00F0F3
:02015E00BEEFF2
:1001600000F0B6EC00F0132EFCD71200BBEC00F050
:10017000142EFCD71200152EFED71200000E166E9C
:10018000946A12EF01F0200E136E146E156E1200B9
:10019000000E956E010E836EEE50B1EC00F0162A43
:1001A00016C082FF040E16621EEF01F030EF01F060
:1001B000000E956E020E836EEE50B1EC00F0162A22
:1001C00016C082FF040E16621EEF01F030EF01F040
:1001D000000E956E040E836EEE50B1EC00F0162A00
:1001E00016C082FF040E16621EEF01F030EF01F020
:1001F000000E956E080E836EEE50B1EC00F0162ADC
:1002000016C082FF040E16621EEF01F030EF01F0FF
:10021000000E956E0F0E836EEE501EEF01F00AEE8B
:1002200000F012000FEC01F0000EEE6E010EEE6E0B
:10023000020EEE6E030EEE6E0FEC01F0C3EC00F05A
:10024000000EEF64C8EC00F0010EEF64D8EC00F093
:10025000020EEF64E8EC00F0030EEF64F8EC00F03F
:06026000000E31EF01F079
:0A0266003BEC01F0160E046E40ECB4
:1002700001F039EF01F07F9C7F8E03EC00F012005B
:1002800004EE00F0000EF86E020EF76EB20EF66E7F
:1002900004C005F00900F5CFEEFF052EFBD703C023
:1002A000E8FF24EE00F02EEC00F01200062EFED740
:0202B00012003A
:0E02B2005072657373206B657920746F206342
:0802C0006F6E74696E75650A2A
:020000040030CA
:0100000015EA
:0100010013EB
:010002007F7E
:010003007F7D
:01000400F902
:010005008B6F
:010006009168
:01000800FFF8
:01000900C036
:01000A00FFF6
:01000B00E014
:01000C00FFF4
:01000D0040B2
:00000001FF
