:020000040000FA
:0400000057EF00F0C6
:020004000000FA
:08000800F2A411002A2AF2946F
:020010001100DD
:0E0012007F9C7F8E8AEC00F0120004EE00F05E
:100020000E0E126E000EF86E030EF76EAC0EF66E2C
:1000300012C000F04AEC00F0120004EE00F0100EC6
:10004000126E000EF86E030EF76EBA0EF66E12C048
:1000500000F04AEC00F0120004EE00F00B0E126EFD
:10006000000EF86E030EF76ECA0EF66E12C000F0A8
:100070004AEC00F0120004EE00F00C0E126E000EBE
:10008000F86E030EF76ED60EF66E12C000F04AEC54
:1000900000F012000900F5CFEEFF002EFBD712C0D2
:1000A000E8FFE80624EE00F0BCEC00F0120009ECDA
:1000B00000F00AEC01F05FEC01F00EEC00F043EC14
:1000C00001F052EC01F065EC01F0AAEC01F0B5ECA6
:1000D00000F052EC01F0040E2C6E2A6AF29EB3EC92
:1000E00001F0216A14EC01F0F1EC01F02B6A2D6AA9
:1000F0006EEC01F02CEC00F02C2A11EE40F02A6A94
:1001000048EC01F052EC01F0B5EC00F06FEF00F0BC
:0401100088EF00F084
:0C0114008A6AC00E936E280EF4EC00F016
:10012000300EC3EC00F00A0EFBEC00F0280EC3EC1E
:1001300000F00A0EFBEC00F0280EC3EC00F00A0EF3
:10014000FBEC00F00C0EC3EC00F00A0EFBEC00F030
:10015000010EC3EC00F0020EF4EC00F0060EC3EC4E
:1001600000F00A0EFBEC00F01200010EC3EC00F0F0
:10017000020EF4EC00F01200176EDE50D1EC00F02D
:10018000172EFBD71200166E16380F0B8A6E8A9840
:10019000E2EC00F016500F0B8A6E8A98E2EC00F049
:1001A0001200166E16380F0B8A6E8A88E2EC00F089
:1001B00016500F0B8A6E8A88E2EC00F00A0EFBECF8
:1001C00000F012000000000000000000000000002D
:1001D000000000008A8A000000000000000000000B
:1001E000000000008A9A1200156EFA0EFBEC00F077
:1001F000152EFBD71200136E133A0F0E1314146E44
:10020000F00E131605EC01F01200000E1306145A3E
:04021000FDE21200F9
:0C021400956A010E236E020E246E040E8B
:10022000256E080E266E12002BEC01F022C083FF13
:10023000E65043EC01F052EC01F0212A836A43ECD2
:1002400001F052EC01F02CC0E8FF2162EDD7836A87
:1002500011EE40F0120023C022F0000EE7641200FD
:1002600024C022F0010EE764120025C022F0020E25
:10027000E764120026C022F01200000E956E0F0EE9
:10028000836EE6CF00F0400E1E6E1F6E206E1200D1
:10029000F00E1E6E1F6E206E1200100E1E6E1F6E70
:1002A000206E120057EC01F01E2EFCD712005CEC01
:0E02B00001F01F2EFCD71200202EFED71200E8
:0202BE000F012E
:1002C000538D0F0E966E846A120084A0000C84A2D7
:1002D000010C84A4020C84A6030CF7D784A08DEC37
:1002E00001F084A292EC01F084A497EC01F084A6C2
:1002F0009CEC01F02D66A1EC01F02D6A4DEC01F0B3
:1003000052EC01F0836A2BC0E8FF2C647AEF00F016
:10031000590E2A64E3D788EF00F0010E836E2D6832
:10032000000E1200020E836E2D68010E1200040EE4
:10033000836E2D68020E1200080E836E2D68030E68
:100340001200E662A6EF01F02B2A12001DEC00F06D
:04035000A8EF01F021
:0C035400010E186E196E1A6E1B6E1D6AE9
:1003600011EE40F01200C0EC01F01CC0E6FF1D2AA7
:100370002CC0E8FF1D62F7D711EE40F01D6A120095
:10038000CBEC01F018C01CF0CBEC01F018C000F071
:100390001C261C2612001BC0E8FF1A181AC01BF0EE
:0C03A00019C01AF018C019F0186E1200F5
:0403AC0050726573B3
:1003B0007320616E79206B65790A6C6F6C207468AC
:1003C0006174732077726F6E670A4E657874206C63
:1003D0006576656C0A00746F6F206C617465206DC2
:0203E000380AD9
:0A03E200870ED56EF28AF28E12002B
:020000040030CA
:0100000015EA
:0100010013EB
:010002007F7E
:010003007F7D
:01000400F902
:010005008B6F
:010006009168
:01000800FFF8
:01000900C036
:01000A00FFF6
:01000B00E014
:01000C00FFF4
:01000D0040B2
:00000001FF
