:020000040000FA
:040000001CEF01F000
:020004000000FA
:08000800F2B213EC00F0F0B0BD
:1000100018EC00F0F0B21DEC00F0F0B422EC00F0AF
:1000200027EC00F01100010E836EF292000E120018
:10003000020E836EF090010E1200040E836EF09299
:10004000020E1200080E836EF094030E1200E66298
:100050002DEF00F02FEC00F012002DEF00F02FEF4D
:0200600000F0AE
:0E0062008A6AC00E936E280E94EC00F0300EE9
:1000700063EC00F00A0E9BEC00F0280E63EC00F03D
:100080000A0E9BEC00F0280E63EC00F00A0E9BECCD
:1000900000F00F0E63EC00F00A0E9BEC00F0010E76
:1000A00063EC00F0020E94EC00F0060E63EC00F03E
:1000B0000A0E9BEC00F01200176EDE5071EC00F09F
:1000C000172EFBD71200166E16380F0B8A6E8A9801
:1000D00082EC00F016500F0B8A6E8A9882EC00F0CA
:1000E0001200166E16380F0B8A6E8A8882EC00F0AA
:1000F00016500F0B8A6E8A8882EC00F00A0E9BEC79
:1001000000F01200000000000000000000000000ED
:10011000000000008A8A00000000000000000000CB
:10012000000000008A9A1200156EFA0E9BEC00F097
:10013000152EFBD71200136E133A0F0E1314146E04
:10014000F00E1316A5EC00F01200000E1306145A60
:04015000FDE21200BA
:0C015400956A010E236E020E246E040E4C
:10016000256E080E266E1200C5EC00F022C083FF3B
:10017000E650DDEC00F0E2EC00F0212A040E2162F2
:10018000F3D7836A11EE40F0120023C022F0000E74
:10019000E764120024C022F0010EE764120025C0BB
:1001A00022F0020EE764120026C022F01200000EB8
:1001B000956E0F0E836EE6CF00F0400E1E6E1F6E22
:1001C000206E1200E7EC00F01E2EFCD71200ECECC3
:0E01D00000F01F2EFCD71200202EFED71200CA
:0201DE007F9C04
:1001E0007F8E31EC00F0120004EE00F0000EF86E8D
:1001F000000EF76E020EF66E12C000F00900F5CF89
:10020000EEFF002EFBD712C0E8FFE80624EE00F058
:100210005CEC00F01200012EFED71200AEC202F01C
:100220000E0E126EF4EC00F01200BCC202F0100EC2
:10023000126EF4EC00F01200EFEC00F02DEC01F087
:10024000AAEC00F00EEC01F015EC01F036EC01F038
:0A025000216AB4EC00F066EC01F046
:06025A00010E186E196E82
:100260001A6E1B6E1D6A11EE40F0120041EC01F097
:100270001CC0E6FF1D2A040E1D62F8D711EE40F0E7
:1002800012004CEC01F018C01CF04CEC01F018C04E
:1002900000F01C261C2612001BC0E8FF1A181AC00A
:0E02A0001BF019C01AF018C019F0186E1200E9
:0202AE0050728C
:1002B00065737320616E79206B65790A6C6F6C20B1
:0C02C00074686174732077726F6E670AB7
:0402CC000F0E936E10
:1002D000F00E816EF288F086F088F08AF28E1200BD
:020000040030CA
:0100000015EA
:0100010013EB
:010002007F7E
:010003007F7D
:01000400F902
:010005008B6F
:010006009168
:01000800FFF8
:01000900C036
:01000A00FFF6
:01000B00E014
:01000C00FFF4
:01000D0040B2
:00000001FF
