:020000040000FA
:04000000D7EF00F046
:020004000000FA
:08000800F2A411002C2AF2946D
:020010001100DD
:0E0012008A6AC00E936E280E73EC00F0300E5A
:1000200042EC00F00A0E7AEC00F0280E42EC00F0F0
:100030000A0E7AEC00F0280E42EC00F00A0E7AEC80
:1000400000F00C0E42EC00F00A0E7AEC00F0010E0B
:1000500042EC00F0020E73EC00F0060E42EC00F0F1
:100060000A0E7AEC00F01200010E42EC00F0020ED3
:1000700073EC00F01200176EDE5050EC00F0172EFB
:10008000FBD71200166E16380F0B8A6E8A9861EC39
:1000900000F016500F0B8A6E8A9861EC00F0120087
:1000A000166E16380F0B8A6E8A8861EC00F01650B7
:1000B0000F0B8A6E8A8861EC00F00A0E7AEC00F071
:1000C000120000000000000000000000000000001E
:1000D00000008A8A0000000000000000000000000C
:1000E00000008A9A1200156EFA0E7AEC00F0152EB6
:1000F000FBD71200136E133A0F0E1314146EF00E8A
:10010000131684EC00F01200000E1306145AFDE2E0
:020110001200DB
:0E0112007F9C7F8E09EC00F0120004EE00F0DE
:100120000E0E126E000EF86E030EF76EF60EF66EE1
:1001300012C000F0CAEC00F0120004EE00F0100E45
:10014000126E000EF86E040EF76E040EF66E12C0FC
:1001500000F0CAEC00F0120004EE00F00B0E126E7C
:10016000000EF86E040EF76E140EF66E12C000F05C
:10017000CAEC00F0120004EE00F00C0E126E000E3D
:10018000F86E040EF76E200EF66E12C000F0CAEC88
:1001900000F012000900F5CFEEFF002EFBD712C0D1
:1001A000E8FFE80624EE00F03BEC00F01200C1ECA2
:1001B00001F0F0EC01F089EC00F06AEC01F008ECE1
:1001C00001F08EEC00F09FEC01F00FEC01F0C1ECBF
:1001D00001F034EC00F09FEC01F0F29ECDEC01F068
:1001E000236A74EC01F016EC02F02D6A18EC01F0B1
:1001F000ACEC00F02E2A11EE40F02C6AA6EC01F0D7
:1002000034EC00F0EEEF00F0BBEC00F006EF01F094
:100210000F01538D0F0E966E846A2C6A120084A013
:10022000000C84A2010C84A4020C84A6030CF7D752
:1002300084A029EC01F084A237EC01F084A445EC01
:1002400001F084A653EC01F0590E2C64F1D704EFB1
:1002500001F0010E836E000E61EC01F0ADEC01F0D7
:10026000836A2DC0E8FF2E64F8EF00F01200020E42
:10027000836E010E61EC01F0ADEC01F0836A2DC0DC
:10028000E8FF2E64F8EF00F01200040E836E020EF9
:1002900061EC01F0ADEC01F0836A2DC0E8FF2E6443
:1002A000F8EF00F01200080E836E030E61EC01F00F
:1002B000ADEC01F0836A2DC0E8FF2E64F8EF00F08A
:1002C0001200E66266EF01F02D2A12009DEC00F0AC
:0402D00068EF01F0E2
:0C02D400956A010E256E020E266E040EC7
:1002E000276E080E286E120087EC01F024C083FFF1
:1002F000E6509FEC01F0232A836A9FEC01F02EC0A8
:10030000E8FF2362F1D7836A11EE40F0120025C0A6
:1003100024F0000EE764120026C024F0010EE7640A
:10032000120027C024F0020EE764120028C024F057
:100330001200000E956E0F0E836EE6CF00F0400E99
:10034000206E216E226EB4EC01F01200F00E206ED1
:10035000216E226EB4EC01F01200100E206E216EA0
:10036000226EB4EC01F01200B9EC01F0202EFCD7A3
:100370001200BEEC01F0212EFCD71200222EFED777
:02038000120069
:0E038200010E186E196E1A6E1B6E1F6A11EEB8
:1003900040F0040E2E6E1C681200DAEC01F01EC054
:1003A000E6FF1F2A2EC0E8FF1F62F7D711EE40F0CC
:1003B0001F6A1200E5EC01F018C01EF0E5EC01F038
:1003C00018C000F01E261E2612001BC0E8FF1A18D7
:1003D0001AC01BF019C01AF018C019F0186E1200DC
:1003E000010E1D6E1CA01D6A1CA2E86A1D18D88093
:0603F000E866D8901C42F3
:0A03F600507265737320616E792068
:100400006B65790A6C6F6C20746861747320777205
:100410006F6E670A4E657874206C6576656C0A00AD
:0C042000746F6F206C617465206D380AE9
:04042C00870ED56EF4
:06043000F28AF28E1200B8
:020000040030CA
:0100000015EA
:0100010013EB
:010002007F7E
:010003007F7D
:01000400F902
:010005008B6F
:010006009168
:01000800FFF8
:01000900C036
:01000A00FFF6
:01000B00E014
:01000C00FFF4
:01000D0040B2
:00000001FF
