:020000040000FA
:04000000EAEF00F033
:020004000000FA
:08000800F2B217EC00F0F0B0B9
:100010001CEC00F0F0B221EC00F0F0B426EC00F0A3
:10002000F2A42BEC00F0F2B430EC00F01100010E61
:10003000836EF292000E1200020E836EF090010E9B
:100040001200040E836EF092020E1200080E836EF0
:10005000F094030E1200E66233EF00F02B2A120038
:0E0060002A2AF2941200CBEC00F035EF00F0EB
:02006E008A6A9C
:10007000C00E936E280EA1EC00F0300E70EC00F074
:100080000A0EA8EC00F0280E70EC00F00A0EA8ECA6
:1000900000F0280E70EC00F00A0EA8EC00F00F0E35
:1000A00070EC00F00A0EA8EC00F0010E70EC00F00D
:1000B000020EA1EC00F0060E70EC00F00A0EA8ECA7
:1000C00000F01200010E70EC00F0020EA1EC00F046
:1000D0001200176EDE507EEC00F0172EFBD71200D8
:1000E000166E16380F0B8A6E8A988FEC00F0165039
:1000F0000F0B8A6E8A988FEC00F01200166E16387D
:100100000F0B8A6E8A888FEC00F016500F0B8A6EE8
:100110008A888FEC00F00A0EA8EC00F012000000B4
:1001200000000000000000000000000000008A8ABB
:1001300000000000000000000000000000008A9A9B
:100140001200156EFA0EA8EC00F0152EFBD7120067
:10015000136E133A0F0E1314146EF00E1316B2EC46
:0E01600000F01200000E1306145AFDE2120009
:02016E007F9C74
:100170007F8E37EC00F0120004EE00F00E0E126ECF
:10018000000EF86E030EF76E180EF66E12C000F039
:10019000DAEC00F0120004EE00F0100E126E000E09
:1001A000F86E030EF76E260EF66E12C000F0DAEC53
:1001B00000F012000900F5CFEEFF002EFBD712C0B1
:1001C000E8FFE80624EE00F069EC00F01200012ED2
:1001D000FED71200B7EC00F052EC01F00DEC01F08C
:1001E0009BEC01F0BCEC00F0A0EC01F062EC00F044
:1001F0005BEC01F0216A17EC01F07CEC01F02BC004
:10020000E8FF1D6009EF01F00B0E2A64F8D70BEF31
:0A02100001F009EF01F00BEF01F01F
:06021A00956A010E236E3F
:10022000020E246E040E256E080E266E120028ECB7
:1002300001F022C083FFE65040EC01F045EC01F0F4
:10024000212A040E2162F3D7836A11EE40F01200D6
:1002500023C022F0000EE764120024C022F0010E39
:10026000E764120025C022F0020EE764120026C0E7
:1002700022F01200000E956E0F0E836EE6CF00F096
:10028000400E1E6E1F6E206E12004AEC01F01E2EF4
:10029000FCD712004FEC01F01F2EFCD71200202ECD
:0402A000FED7120073
:0C02A400010E186E196E1A6E1B6E1D6A9A
:1002B00011EE40F0120066EC01F01CC0E6FF1D2AB2
:1002C000040E1D62F8D711EE40F0120071EC01F03F
:1002D00018C01CF071EC01F018C000F01C261C26A0
:1002E00012001BC0E8FF1A181AC01BF019C01AF040
:0802F00018C019F0186E12008D
:0802F8000F01538D0F0E966EED
:10030000936E846A816AF288F086F088F08A870E9C
:08031000D56EF28AF28E120094
:08031800507265737320616EE1
:1003200079206B65790A6C6F6C2074686174732036
:0603300077726F6E670A90
:0A0336000F01538D0F0E966E12009A
:1003400084A0120084A2120084A4120084A61200C9
:02035000F7D7DD
:020000040030CA
:0100000015EA
:0100010013EB
:010002007F7E
:010003007F7D
:01000400F902
:010005008B6F
:010006009168
:01000800FFF8
:01000900C036
:01000A00FFF6
:01000B00E014
:01000C00FFF4
:01000D0040B2
:00000001FF
