:020000040000FA
:04000000D7EF00F046
:020004000000FA
:08000800F2A41100292AF29470
:020010001100DD
:0E0012008A6AC00E936E280E73EC00F0300E5A
:1000200042EC00F00A0E7AEC00F0280E42EC00F0F0
:100030000A0E7AEC00F0280E42EC00F00A0E7AEC80
:1000400000F00C0E42EC00F00A0E7AEC00F0010E0B
:1000500042EC00F0020E73EC00F0060E42EC00F0F1
:100060000A0E7AEC00F01200010E42EC00F0020ED3
:1000700073EC00F01200176EDE5050EC00F0172EFB
:10008000FBD71200166E16380F0B8A6E8A9861EC39
:1000900000F016500F0B8A6E8A9861EC00F0120087
:1000A000166E16380F0B8A6E8A8861EC00F01650B7
:1000B0000F0B8A6E8A8861EC00F00A0E7AEC00F071
:1000C000120000000000000000000000000000001E
:1000D00000008A8A0000000000000000000000000C
:1000E00000008A9A1200156EFA0E7AEC00F0152EB6
:1000F000FBD71200136E133A0F0E1314146EF00E8A
:10010000131684EC00F01200000E1306145AFDE2E0
:020110001200DB
:0E0112007F9C7F8E09EC00F0120004EE00F0DE
:100120000E0E126E000EF86E030EF76ED20EF66E05
:1001300012C000F0CAEC00F0120004EE00F0100E45
:10014000126E000EF86E030EF76EE00EF66E12C021
:1001500000F0CAEC00F0120004EE00F00B0E126E7C
:10016000000EF86E030EF76EF00EF66E12C000F081
:10017000CAEC00F0120004EE00F00C0E126E000E3D
:10018000F86E030EF76EFC0EF66E12C000F0CAECAD
:1001900000F012000900F5CFEEFF002EFBD712C0D1
:1001A000E8FFE80624EE00F03BEC00F0120089ECDA
:1001B00000F068EC01F004EC01F08EEC00F09DEC36
:1001C00001F00CEC01F0BFEC01F034EC00F09DEC20
:1001D00001F0F29EC8EC01F0206A72EC01F004EC30
:1001E00002F02A6A16EC01F0ACEC00F02B2A11EEBA
:1001F00040F0296AA4EC01F034EC00F0EAEF00F0E2
:08020000BBEC00F002EF01F07D
:080208000F01538D0F0E966EDD
:10021000846A296A1868120084A0000C84A2010C68
:1002200084A4020C84A6030C182AF6D784A027EC19
:1002300001F084A235EC01F084A443EC01F084A623
:1002400051EC01F0590E2964F1D700EF01F0010ED5
:10025000836E000E5FEC01F0ABEC01F0836A2AC004
:10026000E8FF2B64F4EF00F01200020E836E010E23
:100270005FEC01F0ABEC01F0836A2AC0E8FF2B646D
:10028000F4EF00F01200040E836E020E5FEC01F03A
:10029000ABEC01F0836A2AC0E8FF2B64F4EF00F0B6
:1002A0001200080E836E030E5FEC01F0ABEC01F060
:1002B000836A2AC0E8FF2B64F4EF00F01200E662C4
:1002C00064EF01F02A2A12009DEC00F066EF01F0C5
:1002D000956A010E226E020E236E040E246E080E25
:1002E000256E120085EC01F021C083FFE6509DECE5
:1002F00001F0202A836A9DEC01F02BC0E8FF206208
:10030000F1D7836A11EE40F0120022C021F0000EF6
:10031000E764120023C021F0010EE764120024C03C
:1003200021F0020EE764120025C021F01200000E39
:10033000956E0F0E836EE6CF00F0400E1D6E1E6EA2
:100340001F6EB2EC01F01200F00E1D6E1E6E1F6EDD
:10035000B2EC01F01200100E1D6E1E6E1F6EB2EC9C
:1003600001F01200B7EC01F01D2EFCD71200BCEC1E
:0E03700001F01E2EFCD712001F2EFED7120029
:02037E001B6AF8
:1003800011EE40F0040E2B6E0F0E18641868120068
:10039000D5EC01F01AC0E6FF1B2A2BC0E8FF1B6258
:1003A000F7D711EE40F01B6A1200DDEC01F01A6E77
:1003B000DDEC01F01A261A261200010E196E18A89B
:1003C000196A18AAE86A1918D890E866D88018320D
:0203D000F4D760
:0E03D200507265737320616E79206B65790A35
:1003E0006C6F6C2074686174732077726F6E670A2B
:1003F0004E657874206C6576656C0A00746F6F20AA
:080400006C617465206D380A7F
:08040800870ED56EF28AF28E18
:020410001200D8
:020000040030CA
:0100000015EA
:0100010013EB
:010002007F7E
:010003007F7D
:01000400F902
:010005008B6F
:010006009168
:01000800FFF8
:01000900C036
:01000A00FFF6
:01000B00E014
:01000C00FFF4
:01000D0040B2
:00000001FF
